{
  "contractName": "USPToken",
  "abi": [
    {
      "inputs": [],
      "stateMutability": "nonpayable",
      "type": "constructor"
    },
    {
      "anonymous": false,
      "inputs": [
        {
          "indexed": true,
          "internalType": "address",
          "name": "tokenOwner",
          "type": "address"
        },
        {
          "indexed": true,
          "internalType": "address",
          "name": "spender",
          "type": "address"
        },
        {
          "indexed": false,
          "internalType": "uint256",
          "name": "tokens",
          "type": "uint256"
        }
      ],
      "name": "Approval",
      "type": "event"
    },
    {
      "anonymous": false,
      "inputs": [
        {
          "indexed": true,
          "internalType": "address",
          "name": "from",
          "type": "address"
        },
        {
          "indexed": true,
          "internalType": "address",
          "name": "to",
          "type": "address"
        },
        {
          "indexed": false,
          "internalType": "uint256",
          "name": "tokens",
          "type": "uint256"
        }
      ],
      "name": "Transfer",
      "type": "event"
    },
    {
      "inputs": [
        {
          "internalType": "address",
          "name": "",
          "type": "address"
        },
        {
          "internalType": "address",
          "name": "",
          "type": "address"
        }
      ],
      "name": "allowed",
      "outputs": [
        {
          "internalType": "uint256",
          "name": "",
          "type": "uint256"
        }
      ],
      "stateMutability": "view",
      "type": "function",
      "constant": true
    },
    {
      "inputs": [
        {
          "internalType": "address",
          "name": "",
          "type": "address"
        }
      ],
      "name": "balances",
      "outputs": [
        {
          "internalType": "uint256",
          "name": "",
          "type": "uint256"
        }
      ],
      "stateMutability": "view",
      "type": "function",
      "constant": true
    },
    {
      "inputs": [],
      "name": "decimals",
      "outputs": [
        {
          "internalType": "uint256",
          "name": "",
          "type": "uint256"
        }
      ],
      "stateMutability": "view",
      "type": "function",
      "constant": true
    },
    {
      "inputs": [],
      "name": "name",
      "outputs": [
        {
          "internalType": "string",
          "name": "",
          "type": "string"
        }
      ],
      "stateMutability": "view",
      "type": "function",
      "constant": true
    },
    {
      "inputs": [],
      "name": "symbol",
      "outputs": [
        {
          "internalType": "string",
          "name": "",
          "type": "string"
        }
      ],
      "stateMutability": "view",
      "type": "function",
      "constant": true
    },
    {
      "inputs": [],
      "name": "totalSupply_",
      "outputs": [
        {
          "internalType": "uint256",
          "name": "",
          "type": "uint256"
        }
      ],
      "stateMutability": "view",
      "type": "function",
      "constant": true
    },
    {
      "inputs": [],
      "name": "totalSupply",
      "outputs": [
        {
          "internalType": "uint256",
          "name": "",
          "type": "uint256"
        }
      ],
      "stateMutability": "pure",
      "type": "function",
      "constant": true
    },
    {
      "inputs": [
        {
          "internalType": "address",
          "name": "tokenOwner",
          "type": "address"
        }
      ],
      "name": "balanceOf",
      "outputs": [
        {
          "internalType": "uint256",
          "name": "",
          "type": "uint256"
        }
      ],
      "stateMutability": "view",
      "type": "function",
      "constant": true
    },
    {
      "inputs": [
        {
          "internalType": "address",
          "name": "receiver",
          "type": "address"
        },
        {
          "internalType": "uint256",
          "name": "numTokens",
          "type": "uint256"
        }
      ],
      "name": "transfer",
      "outputs": [
        {
          "internalType": "bool",
          "name": "",
          "type": "bool"
        }
      ],
      "stateMutability": "nonpayable",
      "type": "function"
    },
    {
      "inputs": [
        {
          "internalType": "address",
          "name": "delegate",
          "type": "address"
        },
        {
          "internalType": "uint256",
          "name": "numTokens",
          "type": "uint256"
        }
      ],
      "name": "approve",
      "outputs": [
        {
          "internalType": "bool",
          "name": "",
          "type": "bool"
        }
      ],
      "stateMutability": "nonpayable",
      "type": "function"
    },
    {
      "inputs": [
        {
          "internalType": "address",
          "name": "owner",
          "type": "address"
        },
        {
          "internalType": "address",
          "name": "delegate",
          "type": "address"
        }
      ],
      "name": "allowance",
      "outputs": [
        {
          "internalType": "uint256",
          "name": "",
          "type": "uint256"
        }
      ],
      "stateMutability": "view",
      "type": "function",
      "constant": true
    },
    {
      "inputs": [
        {
          "internalType": "address",
          "name": "owner",
          "type": "address"
        },
        {
          "internalType": "uint256",
          "name": "numTokens",
          "type": "uint256"
        }
      ],
      "name": "transferFrom",
      "outputs": [
        {
          "internalType": "bool",
          "name": "",
          "type": "bool"
        }
      ],
      "stateMutability": "nonpayable",
      "type": "function"
    }
  ],
  "bytecode": "0x608060405234801561001057600080fd5b5033600090815260208190526040902069152d02c7e14af680000090556106748061003c6000396000f3fe608060405234801561001057600080fd5b50600436106100b45760003560e01c8063324536eb11610071578063324536eb1461016a5780635c6581651461017b57806370a08231146101a657806395d89b41146101cf578063a9059cbb146101f2578063dd62ed3e1461020557600080fd5b806301c6adc3146100b957806306fdde03146100e1578063095ea7b31461011557806318160ddd1461012857806327e235e314610142578063313ce56714610162575b600080fd5b6100cc6100c7366004610517565b61023e565b60405190151581526020015b60405180910390f35b610108604051806040016040528060088152602001672aa9a82a37b5b2b760c11b81525081565b6040516100d89190610541565b6100cc610123366004610517565b6103af565b69152d02c7e14af68000005b6040519081526020016100d8565b61013461015036600461058f565b60006020819052908152604090205481565b610134601281565b61013469152d02c7e14af680000081565b6101346101893660046105b1565b600160209081526000928352604080842090915290825290205481565b6101346101b436600461058f565b6001600160a01b031660009081526020819052604090205490565b610108604051806040016040528060048152602001631549141560e21b81525081565b6100cc610200366004610517565b610436565b6101346102133660046105b1565b6001600160a01b03918216600090815260016020908152604080832093909416825291909152205490565b6001600160a01b03821660009081526020819052604081205482111561027f5760405162461bcd60e51b8152600401610276906105e4565b60405180910390fd5b6001600160a01b03831660009081526001602090815260408083203384529091529020548211156102c25760405162461bcd60e51b8152600401610276906105e4565b6001600160a01b0383166000908152602081905260409020546102e6908390610618565b6001600160a01b03841660009081526020818152604080832093909355600181528282203383529052205461031c90839061062b565b6001600160a01b0384166000908152600160209081526040808320338452825280832093909355819052205461035390839061062b565b3360008181526020818152604091829020939093555184815290916001600160a01b038616917fddf252ad1be2c89b69c2b068fc378daa952ba7f163c4a11628f55a4df523b3ef91015b60405180910390a35060015b92915050565b336000908152602081905260408120548211156103de5760405162461bcd60e51b8152600401610276906105e4565b3360008181526001602090815260408083206001600160a01b03881680855290835292819020869055518581529192917f8c5be1e5ebec7d5bd14f71427d1e84f3dd0314c0f7b2291e5b200ac8c7c3b925910161039d565b336000908152602081905260408120548211156104655760405162461bcd60e51b8152600401610276906105e4565b33600090815260208190526040902054610480908390610618565b33600090815260208190526040808220929092556001600160a01b038516815220546104ad90839061062b565b6001600160a01b038416600081815260208181526040918290209390935551848152909133917fddf252ad1be2c89b69c2b068fc378daa952ba7f163c4a11628f55a4df523b3ef910161039d565b80356001600160a01b038116811461051257600080fd5b919050565b6000806040838503121561052a57600080fd5b610533836104fb565b946020939093013593505050565b600060208083528351808285015260005b8181101561056e57858101830151858201604001528201610552565b506000604082860101526040601f19601f8301168501019250505092915050565b6000602082840312156105a157600080fd5b6105aa826104fb565b9392505050565b600080604083850312156105c457600080fd5b6105cd836104fb565b91506105db602084016104fb565b90509250929050565b6020808252600490820152634552524f60e01b604082015260600190565b634e487b7160e01b600052601160045260246000fd5b818103818111156103a9576103a9610602565b808201808211156103a9576103a961060256fea2646970667358221220055152aa24cbe7f7a9bd151b4d479608f765c664111bd24a147cd3e0d36007d164736f6c63430008110033",
  "immutableReferences": {},
  "source": "// SPDX-License-Identifier: MIT\n/// @title USPToken\n/// @author Gabriel H Brioto\n/// @notice Implements a token ethereum\n/// @dev Implements a token based on ERC20 standart\n\npragma solidity 0.8.17;\nimport \"./erc20.sol\";\n\ncontract USPToken is ERC20 {\n\n    //atributos\n    string public constant name = \"USPToken\"; \n    string public constant symbol = \"U$PT\";\n    uint256 public constant decimals = 18;\n    uint256 public constant totalSupply_= 100000000000000000000000;\n\n    mapping(address => uint256) public balances;\n    mapping(address => mapping(address => uint256)) public allowed;\n\n    //construtor\n    constructor(){\n\n        balances[msg.sender] = totalSupply_ ;\n\n    }\n\n    //mtodo do tipo \"get\" que retorna o totalSupply do contrato\n    function totalSupply() public override pure returns( uint256){\n        return totalSupply_;\n    }\n\n    //mtodo do tipo \"get\" que retorna a quantidade de tokens que uma conta possui\n    function balanceOf(address tokenOwner) public override view returns (uint256){\n        return balances[tokenOwner];\n    }\n\n    //realiza uma transferncia\n    function transfer(address receiver, uint256 numTokens) public override returns (bool){\n        \n        //condio para que a transferncia ocorra\n        require(numTokens <= balances[msg.sender], 'ERRO');\n\n        //recalcula a quantidade de tokens do recebedor e do remetente\n        balances[msg.sender] = balances[msg.sender] - numTokens;\n        balances[receiver] = balances[receiver] + numTokens;\n\n        //consolida a transferncia\n        emit Transfer(msg.sender, receiver, numTokens);\n        return true;\n\n    }\n\n    //confere a aprovao de uma transao\n    function approve(address delegate, uint256 numTokens) public override returns(bool){\n        \n        require(numTokens <= balances[msg.sender], 'ERRO');\n\n        allowed[msg.sender][delegate] = numTokens;\n        emit Approval(msg.sender, delegate, numTokens);\n        return true;\n\n    }\n\n    function allowance(address owner, address delegate) public override view returns(uint256){\n        return allowed[owner][delegate];\n    }\n\n    function transferFrom(address owner, uint256 numTokens) public override returns(bool){\n        \n        //condies para que a transao ocorra\n        require(numTokens <= balances[owner], 'ERRO');\n        require(numTokens <= allowed[owner][msg.sender], 'ERRO');\n\n        //recalcula a quantidade de tokens do recebedor e do remetente\n        balances[owner] = balances[owner] - numTokens;\n        allowed[owner][msg.sender] = allowed[owner][msg.sender] + numTokens;\n        balances[msg.sender] = balances[msg.sender] + numTokens;\n\n        //consolida a transferncia\n        emit Transfer(owner, msg.sender, numTokens);\n        return true;\n\n    }\n\n}",
  "sourcePath": "/home/gabriel/rea de Trabalho/Moeda U$P/Token7/contracts/USPToken.sol",
  "compiler": {
    "name": "solc",
    "version": "0.8.17+commit.8df45f5f.Emscripten.clang"
  },
  "schemaVersion": "3.4.10",
  "updatedAt": "2023-10-24T17:03:56.742Z",
  "networkType": "ethereum",
  "devdoc": {
    "kind": "dev",
    "methods": {},
    "version": 1
  },
  "userdoc": {
    "kind": "user",
    "methods": {},
    "version": 1
  }
}